{
  "_format": "hh-sol-artifact-1",
  "contractName": "SEHATIRegistry",
  "sourceName": "contracts/SEHATIRegistry.sol",
  "abi": [
    {
      "inputs": [],
      "stateMutability": "nonpayable",
      "type": "constructor"
    },
    {
      "inputs": [],
      "name": "AccessControlBadConfirmation",
      "type": "error"
    },
    {
      "inputs": [
        {
          "internalType": "address",
          "name": "account",
          "type": "address"
        },
        {
          "internalType": "bytes32",
          "name": "neededRole",
          "type": "bytes32"
        }
      ],
      "name": "AccessControlUnauthorizedAccount",
      "type": "error"
    },
    {
      "inputs": [],
      "name": "ReentrancyGuardReentrantCall",
      "type": "error"
    },
    {
      "anonymous": false,
      "inputs": [
        {
          "indexed": true,
          "internalType": "bytes32",
          "name": "grantId",
          "type": "bytes32"
        },
        {
          "indexed": true,
          "internalType": "address",
          "name": "patient",
          "type": "address"
        },
        {
          "indexed": false,
          "internalType": "bytes32",
          "name": "accessToken",
          "type": "bytes32"
        },
        {
          "indexed": false,
          "internalType": "uint256",
          "name": "expiresAt",
          "type": "uint256"
        },
        {
          "indexed": false,
          "internalType": "uint256",
          "name": "timestamp",
          "type": "uint256"
        }
      ],
      "name": "AccessGrantCreated",
      "type": "event"
    },
    {
      "anonymous": false,
      "inputs": [
        {
          "indexed": true,
          "internalType": "bytes32",
          "name": "grantId",
          "type": "bytes32"
        },
        {
          "indexed": true,
          "internalType": "address",
          "name": "patient",
          "type": "address"
        },
        {
          "indexed": false,
          "internalType": "uint256",
          "name": "timestamp",
          "type": "uint256"
        }
      ],
      "name": "AccessGrantRevoked",
      "type": "event"
    },
    {
      "anonymous": false,
      "inputs": [
        {
          "indexed": true,
          "internalType": "bytes32",
          "name": "grantId",
          "type": "bytes32"
        },
        {
          "indexed": true,
          "internalType": "address",
          "name": "doctor",
          "type": "address"
        },
        {
          "indexed": false,
          "internalType": "uint256",
          "name": "timestamp",
          "type": "uint256"
        }
      ],
      "name": "AccessGrantUsed",
      "type": "event"
    },
    {
      "anonymous": false,
      "inputs": [
        {
          "indexed": true,
          "internalType": "bytes32",
          "name": "recordId",
          "type": "bytes32"
        },
        {
          "indexed": true,
          "internalType": "address",
          "name": "patient",
          "type": "address"
        },
        {
          "indexed": true,
          "internalType": "address",
          "name": "doctor",
          "type": "address"
        },
        {
          "indexed": false,
          "internalType": "string",
          "name": "ipfsCID",
          "type": "string"
        },
        {
          "indexed": false,
          "internalType": "bytes32",
          "name": "contentHash",
          "type": "bytes32"
        },
        {
          "indexed": false,
          "internalType": "string",
          "name": "recordType",
          "type": "string"
        },
        {
          "indexed": false,
          "internalType": "uint256",
          "name": "timestamp",
          "type": "uint256"
        }
      ],
      "name": "RecordCreated",
      "type": "event"
    },
    {
      "anonymous": false,
      "inputs": [
        {
          "indexed": true,
          "internalType": "bytes32",
          "name": "role",
          "type": "bytes32"
        },
        {
          "indexed": true,
          "internalType": "bytes32",
          "name": "previousAdminRole",
          "type": "bytes32"
        },
        {
          "indexed": true,
          "internalType": "bytes32",
          "name": "newAdminRole",
          "type": "bytes32"
        }
      ],
      "name": "RoleAdminChanged",
      "type": "event"
    },
    {
      "anonymous": false,
      "inputs": [
        {
          "indexed": true,
          "internalType": "bytes32",
          "name": "role",
          "type": "bytes32"
        },
        {
          "indexed": true,
          "internalType": "address",
          "name": "account",
          "type": "address"
        },
        {
          "indexed": true,
          "internalType": "address",
          "name": "sender",
          "type": "address"
        }
      ],
      "name": "RoleGranted",
      "type": "event"
    },
    {
      "anonymous": false,
      "inputs": [
        {
          "indexed": true,
          "internalType": "bytes32",
          "name": "role",
          "type": "bytes32"
        },
        {
          "indexed": true,
          "internalType": "address",
          "name": "account",
          "type": "address"
        },
        {
          "indexed": true,
          "internalType": "address",
          "name": "sender",
          "type": "address"
        }
      ],
      "name": "RoleRevoked",
      "type": "event"
    },
    {
      "anonymous": false,
      "inputs": [
        {
          "indexed": true,
          "internalType": "address",
          "name": "user",
          "type": "address"
        },
        {
          "indexed": false,
          "internalType": "string",
          "name": "role",
          "type": "string"
        },
        {
          "indexed": false,
          "internalType": "uint256",
          "name": "timestamp",
          "type": "uint256"
        }
      ],
      "name": "UserRegistered",
      "type": "event"
    },
    {
      "inputs": [],
      "name": "DEFAULT_ADMIN_ROLE",
      "outputs": [
        {
          "internalType": "bytes32",
          "name": "",
          "type": "bytes32"
        }
      ],
      "stateMutability": "view",
      "type": "function"
    },
    {
      "inputs": [],
      "name": "DOCTOR_ROLE",
      "outputs": [
        {
          "internalType": "bytes32",
          "name": "",
          "type": "bytes32"
        }
      ],
      "stateMutability": "view",
      "type": "function"
    },
    {
      "inputs": [],
      "name": "PATIENT_ROLE",
      "outputs": [
        {
          "internalType": "bytes32",
          "name": "",
          "type": "bytes32"
        }
      ],
      "stateMutability": "view",
      "type": "function"
    },
    {
      "inputs": [
        {
          "internalType": "bytes32",
          "name": "",
          "type": "bytes32"
        }
      ],
      "name": "accessGrants",
      "outputs": [
        {
          "internalType": "address",
          "name": "patient",
          "type": "address"
        },
        {
          "internalType": "address",
          "name": "doctor",
          "type": "address"
        },
        {
          "internalType": "bytes32",
          "name": "accessToken",
          "type": "bytes32"
        },
        {
          "internalType": "uint256",
          "name": "expiresAt",
          "type": "uint256"
        },
        {
          "internalType": "bool",
          "name": "isActive",
          "type": "bool"
        }
      ],
      "stateMutability": "view",
      "type": "function"
    },
    {
      "inputs": [
        {
          "internalType": "bytes32",
          "name": "_accessToken",
          "type": "bytes32"
        },
        {
          "internalType": "uint256",
          "name": "_durationMinutes",
          "type": "uint256"
        }
      ],
      "name": "createAccessGrant",
      "outputs": [
        {
          "internalType": "bytes32",
          "name": "",
          "type": "bytes32"
        }
      ],
      "stateMutability": "nonpayable",
      "type": "function"
    },
    {
      "inputs": [
        {
          "internalType": "address",
          "name": "_patient",
          "type": "address"
        },
        {
          "internalType": "string",
          "name": "_ipfsCID",
          "type": "string"
        },
        {
          "internalType": "bytes32",
          "name": "_contentHash",
          "type": "bytes32"
        },
        {
          "internalType": "string",
          "name": "_recordType",
          "type": "string"
        },
        {
          "internalType": "bytes32",
          "name": "_accessToken",
          "type": "bytes32"
        }
      ],
      "name": "createRecord",
      "outputs": [
        {
          "internalType": "bytes32",
          "name": "",
          "type": "bytes32"
        }
      ],
      "stateMutability": "nonpayable",
      "type": "function"
    },
    {
      "inputs": [
        {
          "internalType": "bytes32",
          "name": "_grantId",
          "type": "bytes32"
        }
      ],
      "name": "getAccessGrant",
      "outputs": [
        {
          "internalType": "address",
          "name": "patient",
          "type": "address"
        },
        {
          "internalType": "address",
          "name": "doctor",
          "type": "address"
        },
        {
          "internalType": "uint256",
          "name": "expiresAt",
          "type": "uint256"
        },
        {
          "internalType": "bool",
          "name": "isActive",
          "type": "bool"
        }
      ],
      "stateMutability": "view",
      "type": "function"
    },
    {
      "inputs": [
        {
          "internalType": "address",
          "name": "_patient",
          "type": "address"
        }
      ],
      "name": "getPatientAccessGrants",
      "outputs": [
        {
          "internalType": "bytes32[]",
          "name": "",
          "type": "bytes32[]"
        }
      ],
      "stateMutability": "view",
      "type": "function"
    },
    {
      "inputs": [
        {
          "internalType": "address",
          "name": "_patient",
          "type": "address"
        }
      ],
      "name": "getPatientRecords",
      "outputs": [
        {
          "internalType": "bytes32[]",
          "name": "",
          "type": "bytes32[]"
        }
      ],
      "stateMutability": "view",
      "type": "function"
    },
    {
      "inputs": [
        {
          "internalType": "bytes32",
          "name": "_recordId",
          "type": "bytes32"
        }
      ],
      "name": "getRecord",
      "outputs": [
        {
          "internalType": "string",
          "name": "ipfsCID",
          "type": "string"
        },
        {
          "internalType": "bytes32",
          "name": "contentHash",
          "type": "bytes32"
        },
        {
          "internalType": "address",
          "name": "patient",
          "type": "address"
        },
        {
          "internalType": "address",
          "name": "doctor",
          "type": "address"
        },
        {
          "internalType": "string",
          "name": "recordType",
          "type": "string"
        },
        {
          "internalType": "uint256",
          "name": "timestamp",
          "type": "uint256"
        }
      ],
      "stateMutability": "view",
      "type": "function"
    },
    {
      "inputs": [
        {
          "internalType": "bytes32",
          "name": "role",
          "type": "bytes32"
        }
      ],
      "name": "getRoleAdmin",
      "outputs": [
        {
          "internalType": "bytes32",
          "name": "",
          "type": "bytes32"
        }
      ],
      "stateMutability": "view",
      "type": "function"
    },
    {
      "inputs": [],
      "name": "grantCount",
      "outputs": [
        {
          "internalType": "uint256",
          "name": "",
          "type": "uint256"
        }
      ],
      "stateMutability": "view",
      "type": "function"
    },
    {
      "inputs": [
        {
          "internalType": "bytes32",
          "name": "role",
          "type": "bytes32"
        },
        {
          "internalType": "address",
          "name": "account",
          "type": "address"
        }
      ],
      "name": "grantRole",
      "outputs": [],
      "stateMutability": "nonpayable",
      "type": "function"
    },
    {
      "inputs": [
        {
          "internalType": "bytes32",
          "name": "role",
          "type": "bytes32"
        },
        {
          "internalType": "address",
          "name": "account",
          "type": "address"
        }
      ],
      "name": "hasRole",
      "outputs": [
        {
          "internalType": "bool",
          "name": "",
          "type": "bool"
        }
      ],
      "stateMutability": "view",
      "type": "function"
    },
    {
      "inputs": [
        {
          "internalType": "address",
          "name": "_user",
          "type": "address"
        }
      ],
      "name": "isDoctor",
      "outputs": [
        {
          "internalType": "bool",
          "name": "",
          "type": "bool"
        }
      ],
      "stateMutability": "view",
      "type": "function"
    },
    {
      "inputs": [
        {
          "internalType": "address",
          "name": "_user",
          "type": "address"
        }
      ],
      "name": "isPatient",
      "outputs": [
        {
          "internalType": "bool",
          "name": "",
          "type": "bool"
        }
      ],
      "stateMutability": "view",
      "type": "function"
    },
    {
      "inputs": [
        {
          "internalType": "address",
          "name": "",
          "type": "address"
        },
        {
          "internalType": "uint256",
          "name": "",
          "type": "uint256"
        }
      ],
      "name": "patientAccessGrants",
      "outputs": [
        {
          "internalType": "bytes32",
          "name": "",
          "type": "bytes32"
        }
      ],
      "stateMutability": "view",
      "type": "function"
    },
    {
      "inputs": [
        {
          "internalType": "address",
          "name": "",
          "type": "address"
        },
        {
          "internalType": "uint256",
          "name": "",
          "type": "uint256"
        }
      ],
      "name": "patientRecords",
      "outputs": [
        {
          "internalType": "bytes32",
          "name": "",
          "type": "bytes32"
        }
      ],
      "stateMutability": "view",
      "type": "function"
    },
    {
      "inputs": [],
      "name": "recordCount",
      "outputs": [
        {
          "internalType": "uint256",
          "name": "",
          "type": "uint256"
        }
      ],
      "stateMutability": "view",
      "type": "function"
    },
    {
      "inputs": [
        {
          "internalType": "bytes32",
          "name": "",
          "type": "bytes32"
        }
      ],
      "name": "records",
      "outputs": [
        {
          "internalType": "string",
          "name": "ipfsCID",
          "type": "string"
        },
        {
          "internalType": "bytes32",
          "name": "contentHash",
          "type": "bytes32"
        },
        {
          "internalType": "address",
          "name": "patient",
          "type": "address"
        },
        {
          "internalType": "address",
          "name": "doctor",
          "type": "address"
        },
        {
          "internalType": "string",
          "name": "recordType",
          "type": "string"
        },
        {
          "internalType": "uint256",
          "name": "timestamp",
          "type": "uint256"
        },
        {
          "internalType": "bool",
          "name": "exists",
          "type": "bool"
        }
      ],
      "stateMutability": "view",
      "type": "function"
    },
    {
      "inputs": [],
      "name": "registerAsDoctor",
      "outputs": [],
      "stateMutability": "nonpayable",
      "type": "function"
    },
    {
      "inputs": [],
      "name": "registerAsPatient",
      "outputs": [],
      "stateMutability": "nonpayable",
      "type": "function"
    },
    {
      "inputs": [
        {
          "internalType": "bytes32",
          "name": "role",
          "type": "bytes32"
        },
        {
          "internalType": "address",
          "name": "callerConfirmation",
          "type": "address"
        }
      ],
      "name": "renounceRole",
      "outputs": [],
      "stateMutability": "nonpayable",
      "type": "function"
    },
    {
      "inputs": [
        {
          "internalType": "bytes32",
          "name": "_grantId",
          "type": "bytes32"
        }
      ],
      "name": "revokeAccessGrant",
      "outputs": [],
      "stateMutability": "nonpayable",
      "type": "function"
    },
    {
      "inputs": [
        {
          "internalType": "bytes32",
          "name": "role",
          "type": "bytes32"
        },
        {
          "internalType": "address",
          "name": "account",
          "type": "address"
        }
      ],
      "name": "revokeRole",
      "outputs": [],
      "stateMutability": "nonpayable",
      "type": "function"
    },
    {
      "inputs": [
        {
          "internalType": "bytes4",
          "name": "interfaceId",
          "type": "bytes4"
        }
      ],
      "name": "supportsInterface",
      "outputs": [
        {
          "internalType": "bool",
          "name": "",
          "type": "bool"
        }
      ],
      "stateMutability": "view",
      "type": "function"
    },
    {
      "inputs": [
        {
          "internalType": "bytes32",
          "name": "_grantId",
          "type": "bytes32"
        }
      ],
      "name": "useAccessGrant",
      "outputs": [],
      "stateMutability": "nonpayable",
      "type": "function"
    },
    {
      "inputs": [
        {
          "internalType": "address",
          "name": "_patient",
          "type": "address"
        },
        {
          "internalType": "bytes32",
          "name": "_accessToken",
          "type": "bytes32"
        }
      ],
      "name": "verifyAccessToken",
      "outputs": [
        {
          "internalType": "bool",
          "name": "",
          "type": "bool"
        }
      ],
      "stateMutability": "view",
      "type": "function"
    }
  ],
  "bytecode": "0x608060405234801561001057600080fd5b5060018055610020600033610026565b506100d2565b6000828152602081815260408083206001600160a01b038516845290915281205460ff166100c8576000838152602081815260408083206001600160a01b03861684529091529020805460ff191660011790556100803390565b6001600160a01b0316826001600160a01b0316847f2f8788117e7eff1d82e926ec794901d17c78024a50270940304540a733656f0d60405160405180910390a45060016100cc565b5060005b92915050565b611b07806100e16000396000f3fe608060405234801561001057600080fd5b50600436106101c45760003560e01c80638f9c79ed116100f9578063ac5cb97d11610097578063f3fcaebf11610071578063f3fcaebf1461042a578063f7652a291461043d578063fce74aea14610450578063fec331f2146104d257600080fd5b8063ac5cb97d146103f9578063cab426721461040e578063d547741f1461041757600080fd5b806394f0df61116100d357806394f0df61146103c3578063996440c6146103d6578063a217fddf146103e9578063a99ad4ee146103f157600080fd5b80638f9c79ed14610394578063900407bc146103a757806391d14854146103b057600080fd5b80632f2ff15d116101665780635d1f6446116101405780635d1f6446146102f25780636ba7fe7f146103665780636d0b7c691461036e57806383f9787b1461038157600080fd5b80632f2ff15d146102b757806332f8535d146102cc57806336568abe146102df57600080fd5b806318bd4847116101a257806318bd48471461022e578063213681cd1461024e578063248a9ca314610273578063255b2441146102a457600080fd5b806301e64725146101c957806301ffc9a7146101f85780630cc050c81461021b575b600080fd5b6101dc6101d7366004611506565b6104e7565b6040516101ef9796959493929190611565565b60405180910390f35b61020b6102063660046115c4565b610646565b60405190151581526020016101ef565b61020b61022936600461160a565b61067d565b61024161023c366004611634565b610690565b6040516101ef919061164f565b61026161025c366004611506565b6106fc565b6040516101ef96959493929190611693565b610296610281366004611506565b60009081526020819052604090206001015490565b6040519081526020016101ef565b6102416102b2366004611634565b6108bc565b6102ca6102c53660046116ea565b610926565b005b6102ca6102da366004611506565b610951565b6102ca6102ed3660046116ea565b610a54565b610339610300366004611506565b600090815260046020819052604090912080546001820154600383015492909301546001600160a01b0391821694919093169260ff1690565b604080516001600160a01b03958616815294909316602085015291830152151560608201526080016101ef565b6102ca610a8c565b61029661037c36600461160a565b610b77565b61029661038f36600461175f565b610ba8565b61020b6103a2366004611634565b610e9c565b61029660065481565b61020b6103be3660046116ea565b610eb2565b6102966103d136600461160a565b610edb565b61020b6103e4366004611634565b610ef7565b610296600081565b6102ca610f11565b610296600080516020611a9283398151915281565b61029660075481565b6102ca6104253660046116ea565b610ff7565b6102ca610438366004611506565b61101c565b61029661044b3660046117f2565b611102565b61049d61045e366004611506565b6004602081905260009182526040909120805460018201546002830154600384015493909401546001600160a01b039283169492909116929060ff1685565b604080516001600160a01b0396871681529590941660208601529284019190915260608301521515608082015260a0016101ef565b610296600080516020611ab283398151915281565b60026020526000908152604090208054819061050290611814565b80601f016020809104026020016040519081016040528092919081815260200182805461052e90611814565b801561057b5780601f106105505761010080835404028352916020019161057b565b820191906000526020600020905b81548152906001019060200180831161055e57829003601f168201915b505050600184015460028501546003860154600487018054969793966001600160a01b0393841696509190921693506105b390611814565b80601f01602080910402602001604051908101604052809291908181526020018280546105df90611814565b801561062c5780601f106106015761010080835404028352916020019161062c565b820191906000526020600020905b81548152906001019060200180831161060f57829003601f168201915b50505050600583015460069093015491929160ff16905087565b60006001600160e01b03198216637965db0b60e01b148061067757506301ffc9a760e01b6001600160e01b03198316145b92915050565b600061068983836112ea565b9392505050565b6001600160a01b0381166000908152600360209081526040918290208054835181840281018401909452808452606093928301828280156106f057602002820191906000526020600020905b8154815260200190600101908083116106dc575b50505050509050919050565b600081815260026020526040812060068101546060929182918291859183919060ff166107635760405162461bcd60e51b815260206004820152601060248201526f149958dbdc99081b9bdd08199bdd5b9960821b60448201526064015b60405180910390fd5b600181015460028201546003830154600584015484548594936001600160a01b039081169316916004860191869061079a90611814565b80601f01602080910402602001604051908101604052809291908181526020018280546107c690611814565b80156108135780601f106107e857610100808354040283529160200191610813565b820191906000526020600020905b8154815290600101906020018083116107f657829003601f168201915b5050505050955081805461082690611814565b80601f016020809104026020016040519081016040528092919081815260200182805461085290611814565b801561089f5780601f106108745761010080835404028352916020019161089f565b820191906000526020600020905b81548152906001019060200180831161088257829003601f168201915b505050505091509650965096509650965096505091939550919395565b6001600160a01b0381166000908152600560209081526040918290208054835181840281018401909452808452606093928301828280156106f057602002820191906000526020600020908154815260200190600101908083116106dc5750505050509050919050565b60008281526020819052604090206001015461094181611395565b61094b83836113a2565b50505050565b600080516020611ab283398151915261096981611395565b60008281526004602081905260409091209081015460ff166109c05760405162461bcd60e51b815260206004820152601060248201526f4772616e74206e6f742061637469766560801b604482015260640161075a565b80600301544210610a035760405162461bcd60e51b815260206004820152600d60248201526c11dc985b9d08195e1c1a5c9959609a1b604482015260640161075a565b6001810180546001600160a01b0319163390811790915560405142815284907f949ee2bdba949acd1e271284001089bed6853aadd359932a769b54bbedac91399060200160405180910390a3505050565b6001600160a01b0381163314610a7d5760405163334bd91960e11b815260040160405180910390fd5b610a878282611434565b505050565b610aa4600080516020611a9283398151915233610eb2565b158015610ac65750610ac4600080516020611ab283398151915233610eb2565b155b610b075760405162461bcd60e51b8152602060048201526012602482015271105b1c9958591e481c9959da5cdd195c995960721b604482015260640161075a565b610b1f600080516020611ab2833981519152336113a2565b5060408051818152600691810191909152653237b1ba37b960d11b606082015242602082015233907f89105a1c6a3c2fbd471255c66a31ccab604af5697f67d7e2e9a0028c5e4dbd91906080015b60405180910390a2565b60056020528160005260406000208181548110610b9357600080fd5b90600052602060002001600091509150505481565b6000600080516020611ab2833981519152610bc281611395565b610bca61149f565b610be2600080516020611a928339815191528a610eb2565b610c275760405162461bcd60e51b815260206004820152601660248201527514185d1a595b9d081b9bdd081c9959da5cdd195c995960521b604482015260640161075a565b610c3189846112ea565b610c7d5760405162461bcd60e51b815260206004820152601960248201527f496e76616c6964206f7220657870697265642061636365737300000000000000604482015260640161075a565b600089338a8a42600654604051602001610c9c9695949392919061184e565b60408051601f198184030181528282528051602091820120610100601f8d018390049092028401820190925260e083018b81529193508291908c908c908190850183828082843760009201919091525050509082525060208082018a90526001600160a01b038d166040808401919091523360608401528051601f8a018390048302810183019091528881526080909201919089908990819084018382808284376000920182905250938552505042602080850191909152600160409485015285835260029052502081518190610d7390826118f8565b506020820151600182015560408201516002820180546001600160a01b039283166001600160a01b031991821617909155606084015160038401805491909316911617905560808201516004820190610dcc90826118f8565b5060a0820151600582015560c0909101516006918201805460ff19169115159190911790556001600160a01b038b166000908152600360209081526040822080546001810182559083529082200183905581549190610e2a836119ce565b9190505550336001600160a01b03168a6001600160a01b0316827fdbb3465b25dde559ac10ffd5703756f089b2107ab1b9ced19ec69fe681e6c75f8c8c8c8c8c42604051610e7d96959493929190611a10565b60405180910390a49150610e9060018055565b50979650505050505050565b6000610677600080516020611a92833981519152835b6000918252602082815260408084206001600160a01b0393909316845291905290205460ff1690565b60036020528160005260406000208181548110610b9357600080fd5b6000610677600080516020611ab283398151915283610eb2565b610f29600080516020611a9283398151915233610eb2565b158015610f4b5750610f49600080516020611ab283398151915233610eb2565b155b610f8c5760405162461bcd60e51b8152602060048201526012602482015271105b1c9958591e481c9959da5cdd195c995960721b604482015260640161075a565b610fa4600080516020611a92833981519152336113a2565b5060408051818152600791810191909152661c185d1a595b9d60ca1b606082015242602082015233907f89105a1c6a3c2fbd471255c66a31ccab604af5697f67d7e2e9a0028c5e4dbd9190608001610b6d565b60008281526020819052604090206001015461101281611395565b61094b8383611434565b600081815260046020526040902080546001600160a01b031633146110755760405162461bcd60e51b815260206004820152600f60248201526e2737ba1033b930b73a1037bbb732b960891b604482015260640161075a565b600481015460ff166110bb5760405162461bcd60e51b815260206004820152600f60248201526e105b1c9958591e481c995d9bdad959608a1b604482015260640161075a565b60048101805460ff19169055604051428152339083907f49f6b23eaa043f2e5ef04b040654efc872ea1b96fc45ffc8c2584b5cdd082b229060200160405180910390a35050565b6000600080516020611a9283398151915261111c81611395565b60008311801561112e57506105a08311155b61117a5760405162461bcd60e51b815260206004820152601f60248201527f4475726174696f6e206d75737420626520312d31343430206d696e7574657300604482015260640161075a565b6007546040516bffffffffffffffffffffffff193360601b166020820152603481018690524260548201526074810191909152600090609401604051602081830303815290604052805190602001209050600084603c6111da9190611a51565b6111e49042611a68565b6040805160a08101825233808252600060208084018281528486018d8152606086018881526001608088018181528c875260048087528a882099518a546001600160a01b03199081166001600160a01b03928316178c5596518b850180549098169116179095559251600289015590516003880155905195909101805460ff191695151595909517909455918152600582529283208054928301815583528220018490556007805492935090611299836119ce565b9091555050604080518781526020810183905242818301529051339184917f647a54815d2557eb8f171bbe95e8cbbddd6fd99ab8e63784370c3721e5b7c0699181900360600190a350949350505050565b6001600160a01b0382166000908152600560205260408120815b815481101561138a5760006004600084848154811061132557611325611a7b565b9060005260206000200154815260200190815260200160002090508481600201541480156113575750600481015460ff165b80156113665750806003015442105b156113775760019350505050610677565b5080611382816119ce565b915050611304565b506000949350505050565b61139f81336114c9565b50565b60006113ae8383610eb2565b61142c576000838152602081815260408083206001600160a01b03861684529091529020805460ff191660011790556113e43390565b6001600160a01b0316826001600160a01b0316847f2f8788117e7eff1d82e926ec794901d17c78024a50270940304540a733656f0d60405160405180910390a4506001610677565b506000610677565b60006114408383610eb2565b1561142c576000838152602081815260408083206001600160a01b0386168085529252808320805460ff1916905551339286917ff6391f5c32d9c69d2a47ea670b442974b53935d1edc7fd64eb21e047a839171b9190a4506001610677565b6002600154036114c257604051633ee5aeb560e01b815260040160405180910390fd5b6002600155565b6114d38282610eb2565b6115025760405163e2517d3f60e01b81526001600160a01b03821660048201526024810183905260440161075a565b5050565b60006020828403121561151857600080fd5b5035919050565b6000815180845260005b8181101561154557602081850181015186830182015201611529565b506000602082860101526020601f19601f83011685010191505092915050565b60e08152600061157860e083018a61151f565b602083018990526001600160a01b0388811660408501528716606084015282810360808401526115a8818761151f565b60a0840195909552505090151560c09091015295945050505050565b6000602082840312156115d657600080fd5b81356001600160e01b03198116811461068957600080fd5b80356001600160a01b038116811461160557600080fd5b919050565b6000806040838503121561161d57600080fd5b611626836115ee565b946020939093013593505050565b60006020828403121561164657600080fd5b610689826115ee565b6020808252825182820181905260009190848201906040850190845b818110156116875783518352928401929184019160010161166b565b50909695505050505050565b60c0815260006116a660c083018961151f565b602083018890526001600160a01b0387811660408501528616606084015282810360808401526116d6818661151f565b9150508260a0830152979650505050505050565b600080604083850312156116fd57600080fd5b8235915061170d602084016115ee565b90509250929050565b60008083601f84011261172857600080fd5b50813567ffffffffffffffff81111561174057600080fd5b60208301915083602082850101111561175857600080fd5b9250929050565b600080600080600080600060a0888a03121561177a57600080fd5b611783886115ee565b9650602088013567ffffffffffffffff808211156117a057600080fd5b6117ac8b838c01611716565b909850965060408a0135955060608a01359150808211156117cc57600080fd5b506117d98a828b01611716565b989b979a50959894979596608090950135949350505050565b6000806040838503121561180557600080fd5b50508035926020909101359150565b600181811c9082168061182857607f821691505b60208210810361184857634e487b7160e01b600052602260045260246000fd5b50919050565b60006bffffffffffffffffffffffff19808960601b168352808860601b166014840152508486602884013750602893019283019190915260488201526068019392505050565b634e487b7160e01b600052604160045260246000fd5b601f821115610a8757600081815260208120601f850160051c810160208610156118d15750805b601f850160051c820191505b818110156118f0578281556001016118dd565b505050505050565b815167ffffffffffffffff81111561191257611912611894565b611926816119208454611814565b846118aa565b602080601f83116001811461195b57600084156119435750858301515b600019600386901b1c1916600185901b1785556118f0565b600085815260208120601f198616915b8281101561198a5788860151825594840194600190910190840161196b565b50858210156119a85787850151600019600388901b60f8161c191681555b5050505050600190811b01905550565b634e487b7160e01b600052601160045260246000fd5b6000600182016119e0576119e06119b8565b5060010190565b81835281816020850137506000828201602090810191909152601f909101601f19169091010190565b608081526000611a2460808301888a6119e7565b8660208401528281036040840152611a3d8186886119e7565b915050826060830152979650505050505050565b8082028115828204841417610677576106776119b8565b80820180821115610677576106776119b8565b634e487b7160e01b600052603260045260246000fdfe72606200fac42b7dc86b75901d61ecfab2a4a1a6eded478b97a428094891abed0af1dac7dea2fd7f7738119cec7df099dfad49aa9d2e7d17ba6b60f63ae7411fa26469706673582212200ca81c33a3edc22ceaf6ef698767bf2cc03ffa0122afc5864bf1c45d17c207e664736f6c63430008140033",
  "linkReferences": {},
  "deployedLinkReferences": {}
}